:10000000830100308A000E28A00003088301A800A5
:10001000831228088300A00E200E090083016F2B95
:1006DE00831273238823722B80308316900091012E
:1006EE009F01831285013E308316850099010730E4
:1006FE0083129900C83083168100831210171014CC
:10070E00080083128E01A201A101A208031D982BDD
:10071E000E08A2000E08A2028C2B0E08A2000E08D4
:10072E00A202A208031D942B0E088312CC238E0165
:10073E00A10A210F8C2BA32B83169C18A42B7E3081
:10074E009B005A309A0003108B1B03148B131C153D
:10075E0055309D00AA309D009C141C1103188B1758
:10076E009C18B72B7F309B0010089A0003108B1B30
:10077E0003148B131C1555309D00AA309D009C143C
:10078E001C1103188B17831208008312A300C83A9A
:10079E0003190800C83023020318EB2BC830A6003B
:1007AE00A7012308A602031CA7030130A400A5017C
:1007BE002608A402031CA5032708A5022508240465
:1007CE00031908000430FB2B0130A400A5012308F7
:1007DE00A402031CA503C830A4070318A50A250804
:1007EE00240403190800FC308316900783120800B6
:02400E00843FED
:0442FC00A500000019
:00000001FF
