:10000000830100308A006328A00003088301AC004C
:100010000408AD000A08AE008A012B08AF000B19D6
:100020008B1E16288312CD239F140B110B188B1DCA
:10003000212883123623013A031D20280130A1060E
:100040000B1083120C1F582883160C1F57287F3063
:1000500083121E020318402840301E02031C382859
:100060005F301E02031C3628843053288530532805
:1000700020301E02031C3E28863053288730532828
:10008000BF301E02031C4C28DE301E02031C4A280F
:100090008030532881305328A0301E02031C522880
:1000A0008230532883308316810083120C1383120D
:1000B0002F08AB002D0884002E088A002C0883002E
:1000C000A00E200E09002130840022307020223042
:1000D00084002B3070208301312B04068001840AB8
:0800E0000406031900346D2829
:100662008312A723FF30A400332B831222087423A2
:10067200851900340134F930831685000430831261
:1006820085000800CF308316850010308312850064
:100692000800F930831685000230831285000800B5
:1006A200EB30831685000430831285000800DB30AE
:1006B200831685000430831285000800DB30831620
:1006C20085002030831285000800EB3083168500F8
:1006D2001030831285000800CF3083168500203049
:1006E2008312850008008312AA00A600802BFF3027
:1006F200A300A30803197F2BA3037A2BA603A60842
:1007020003190800782B8D2B432B6D2B662B512B55
:100712005F2B582B3C2B4A2B831228080319852B5D
:10072200013A0319862B033A0319872B013A03195D
:10073200882B073A0319892B013A03198A2B033AAA
:1007420003198B2B013A031D08008C2BFF23831600
:10075200900083122110FF308316850083128501D9
:100762008316990107308312990081018030831624
:10077200810031309F00013083129F00A8010330B5
:10078200A200831696158B158B160C1783120C1369
:100792000B110B108B1708008312A508031DD42B15
:1007A2002408A500A8012508A700280AAB00DB2B16
:1007B2000310A50CAB0BD92B01308312A505250B19
:1007C200E32B84232808073A03192118EC2BA801EC
:1007D2002408A5000800A8080319211CF52B0730DE
:1007E200A8002408A50008002118FB2BA80A270846
:0C07F200A5000800A8032708A5000800C7
:024000000100BD
:02400E00843FED
:00000001FF
