:020000040000FA
:020000003328A3
:08000800F100030E8301F0007A
:100010000C180B281128A10AA119A1018C01210893
:100020002820700E8300F10E710E09008207CE3475
:10003000CE34EA34EA34DA34DA34F834F834820785
:1000400010342034103404342034043404340234A2
:100050008312A000162083168500831220081F201B
:1000600083128500080083167E308F00FF30A100C8
:1000700083128E018F01C0308B00831601308C00FB
:08008000831231309000432887
:02400E00D430AC
:00000001FF
